:100D55004E4F20534F4C5554494F4E00505245531A
:100D6500532041204B455921202020005C203A2961
:060D7500002F203A2800C7
:100DA0000208FFFF0213000002150000020B000002
:080DB0000224000002210000F2
:030E13008F2F22FC
:020D7B00AE07C1
:100D7D007804EF08800123D8FD540F4410F590E45A
:100D8D00F590AF06EF540F4410F590E4F5907F0AFF
:030D9D00020E1330
:100C8F007590137590037F32120E13759013759034
:100C9F00037F01120E13759013759003120E1375C7
:100CAF009012759002120E137F28120D7B7F0C127B
:070CBF000D7B7F06020D7B97
:050DFF007F01020D7BE5
:0A0CFC0075F00AED120C542430FFCD
:020D0600AE0736
:100D08007804EF08800123D8FD540F4490F59054DF
:100D180080F590AF06EF540F4490F5905480F5900D
:050D28007F0A020E131A
:070DF800EF4480FF020D7BB8
:050E04007F02020D7BDE
:050E09007F0E020D7BCD
:050E0E007F0C020D7BCA
:100CC6008B2C8A2D892EBD0104E4FF80027F401201
:100CD6000DF8AB2CAA2DA92E120C766018052EE560
:100CE6002E7002052D14F9120C76FF120D067FE800
:060CF600120E1380DD2246
:100BBA00C3E5149404E51364809480500F120C0763
:100BCA008E088F09751300751410801EE509AE088A
:100BDA007804CEA2E713CE13D8F8F5098E0874FC70
:100BEA002514F51474FF3513F513E509540FC4F8E9
:0D0BFA00540FC868FF8FA0E509540FFF22BB
:100DB900C3EF648094B0400DD3EF648094B95005BB
:080DC900EF24D0FF22AF052248
:100B5A00AD07C3ED6480948050097F2D120D06ED18
:100B6A00F404FDC3ED648094E4402575F064120C2E
:100B7A00FFD3ED648094E44006749C2DFD80F2124C
:100B8A000CFCD3ED6480948A401F74F62DFD80F22C
:100B9A00C3ED6480948A4011120CFCD3ED648094F6
:100BAA008A400674F62DFD80F2ED2430FF020D0610
:100DE600E580F460FBE580F4600585800D80F6AF54
:020DF6000D22CC
:10091D008D2F8B2C8A2D892E120C76FF120DB9EF8F
:10092D003395E0F5268F277401252EF52EE4352D10
:10093D00F52DAB2CFAA92E120C76F51E7401252E71
:10094D00F52EE4352DF52DE4F515F516AB2CAA2D68
:10095D00A92E120C76FFAD2F120DB98F1DE51E2499
:10096D00D3601724027025AF1DEF3395E0FEEF2500
:10097D0027F527EE3526F5268012AF1DEF3395E0CE
:10098D00FEC3E5279FF527E5269EF5267401252E46
:10099D00F52EE4352DF52DAB2CFAA92E120C76F58E
:1009AD001E7401252EF52EE4352DF52D0516E516B3
:1009BD0070020515C39403E51564809480408DAED7
:0409CD0026AF272208
:100DD100120BBAEF54011460060470067F2B227FB8
:050DE1002D227F3F22DE
:100D2D00E52245217018D3E5169406E515648094E7
:100D3D0080400B0522E522700205217F5F22120BF8
:080D4D00BAEF54072431FF2224
:100A5D00E4F524F525F521F522F515F516E52545E1
:100A6D00247040E5224521701ED3E5169403E5154B
:100A7D0064809480401174182516F8765F0522E580
:100A8D0022700E0521800A120D2D74182516F8A658
:100A9D0007120D2D740E2516F8A607752400752561
:100AAD00018019120DD174182516F8A607120DD153
:100ABD00740E2516F8A607E4F524F5250516E5169A
:100ACD0070020515C39405E51564809480408E224F
:10080000120A5D120DFF120E04E4F515F5167418A8
:100810002516F8E6FF120D060516E51670020515F9
:10082000C39405E5156480948040E37F3D120D0676
:10083000E4F515F516740E2516F8E6FF120D0605FB
:1008400016E51670020515C39405E51564809480BD
:1008500040E37F40120DF8E4F515F516740E2516E9
:10086000F8E6FF120D060516E51670020515C3948D
:1008700005E5156480948040E37F3D120D067B0002
:100880007A00790EE4FD12091D8E1F8F20120B5A7B
:100890007F20120D06E4F5A0FB7A007918FD1209FD
:1008A0001DC3EF9520F516EE951FF515E4F5A0E5AF
:1008B0001645157002FF22D3E5169409E5156480EC
:1008C00094804003020800C3E51694F7E5156480A0
:1008D000947F5003020800750B00750C01C3E50CF2
:1008E0009409E50B648094804003020800E50CC481
:1008F000F8540FC868FF8FA07B007A007918AD0C00
:1009000012091DEFB5200CEEB51F08AF0C120B5AE3
:0D091000AF0C22050CE50C70C4050B80C077
:100ADD00E5A0540FFF7E00120C49E4F5A075A0F0BF
:100AED00120C8FE4F5A01208008F0AEF3395E0FE8B
:100AFD00EFF44E70127F40120DF87BFF7A0D795591
:100B0D007D02120CC680FE7F3E120D06AF0A120B3F
:100B1D005A7F40120DF87BFF7A0D79617D02120C20
:100B2D00C6AF0A120B5A120DE68F17120DFFE517FD
:100B3D00B50A0D7BFF7A0D79717D01120CC680A669
:0D0B4D007BFF7A0D79767D01120CC6809930
:030000000209D121
:0C09D100787FE4F6D8FD75812F020A182B
:100C5400C2D530F707B2D563F0FF05F030E70CB228
:100C6400D5F4048463F0FF05F080018430D502F4E8
:020C7400042258
:100C7600BB010689828A83E0225002E722BBFE027C
:090C8600E32289828A83E49322AF
:100C0700AC28AD29AE2AAF2B7810EC4D4E4F7004AF
:100C17007CA57DA5C3EC13FCED13FDEE13FEEF13CE
:100C2700FF5010EC64CCFCED644CFDEE644EFEEF1F
:100C370064CEFFD8DF8C288D298E2A8F2BEE547F28
:0D0C4700FE228E288F2974A5F52AF52B2298
:1009DD00020ADDE493A3F8E493A34003F68001F249
:1009ED0008DFF48029E493A3F85407240CC8C3331B
:1009FD00C4540F4420C8834004F456800146F6DFEA
:100A0D00E4800B0102040810204080900DA0E47ECC
:100A1D00019360BCA3FF543F30E509541FFEE493DE
:100A2D00A360010ECF54C025E060A840B8E493A3A5
:100A3D00FAE493A3F8E493A3C8C582C8CAC583CAD0
:100A4D00F0A3C8C582C8CAC583CADFE9DEE780BE88
:010DB800003A
:00000001FF
